:0400000076EF02F0A5
:100008000BC017F00CC016F00DC015F0F29EF2A24E
:1000180011D0848A330E0B6EBB0E0C6EDF0E0D6E84
:100028000D2EFED70C2EFCD70B2EFAD700000000A1
:10003800849A858EF0A010D0848A0B0E0B6E260E43
:100048000C6E5D0E0D6E0D2EFED70C2EFCD70B2EF2
:10005800FAD700000000849AF28EF292F090F092A3
:0E00680017C00BF016C00CF015C00DF0110003
:0C007600060E0D6E0D2EFED700001200CD
:100082000B6A0A6A096A00500402F4CF09F0F3CF3E
:1000920008F001500502F4CF0BF0F3CF0AF0005044
:1000A2000502F3500926F4500A22E86A0B22015095
:1000B2000402F3500926F4500A22E86A0B2208C00F
:1000C20000F009C001F00AC002F00BC003F01200F8
:0A00D200D1DF818ECFDF819E120086
:0800DC009888F00E7416120062
:0800E400786A7798779A120000
:1000EC007F0E0001FF15006E00C0FFF0819A819C0D
:1000FC00BF0E001600C0FFF0008C00C0FFF000C067
:06010C0088FFE1DF120094
:10011200819A819CB80E0001FF11886ED9DF12000E
:0E012200819E818A819CFFC088FFD2DF12007F
:10013000CB50010F006E016A000E0122FFC004F0D7
:10014000000E056E9EDF060E026E00C004F001C0B8
:1001500005F0025005E005320432059EFF0FFAD784
:10016000040E016E04C000F0015004E0003600905F
:10017000FF0FFBD7300E0014036E04C000F005C063
:1001800001F001320032019E01320032019E00C0B6
:0C01900078FF0F0E771603507712120054
:08019C00756A7498749A120050
:0A01A4009898CA840C0E7412120021
:0801AE009886F00E771612008E
:1001B600CB50010F006E016A000E0122FFC004F051
:1001C600000E056E5BDF060E026E00C004F001C075
:1001D60005F0025005E005320432059EFF0FFAD7FE
:1001E600040E016E04C000F0015004E000360090D9
:1001F600FF0FFBD7300E0014036E04C000F005C0DD
:1002060001F001320032019E01320032019E00C02F
:0C02160075FF0F0E7416035074121200D6
:0A0222009896CA840C0E77121200A1
:0E022C00ACB202D00000FCD7FFC0ADFF120044
:10023A007F0E0001FF15016E01C0FFF001AC03D073
:0C024A008188819602D081988186120084
:100256000001FB6BF8C0E9FFF9C0EAFFEECFFAF048
:10026600FA51000A0EE0FAC0FFF0DDDF0001FB2BB9
:10027600FB51F825E96E000EF921EA6EEECFFAF091
:04028600EFD712009C
:10028A002C0E0001EA6F020EEB6FFF0EEC6F000EF0
:10029A00ED6F500EE66F040EE76F000EE86F000E6A
:1002AA00E96F460EE26F040EE36F000EE46F000E74
:1002BA00E56FFF0EDE6FFF0EDF6F000EE06F000EC0
:1002CA00E16FAC8A900EAB6E948E949C9EAA03D07A
:0802DA00AECF00F0FBD71200CB
:1002E2000900F5CFE6FF0006FBE10106F9E1120085
:1002F2000001EF6BF06BF16B9892939E939A939C33
:10030200939893968692120E006E000E016E880EDE
:100312000024E16E0F0E0120E26EE66A819A819C52
:100322008198818686823F0E886ED2DEC00E886EEC
:10033200CFDE818881963F0E886ECADEC00E886E3F
:04034200C7DE120000
:10034600FF0E0001F46FFF0EF56FFF0EF66FFF0E46
:10035600F76FC26ADD1D006E0050C1160F0EC01287
:06036600C08EC2801200EF
:10036C00CA80CA827C0ECB6E13DF16DF500E0001E2
:10037C00FF6F1BDF84908482150E0B6E4B0E0C6E80
:10038C00BE0E0D6E0D2EFED70C2EFCD70B2EFAD7F3
:0A039C000000849084929CDE1200A1
:1003A60083A004D00001836B846B858283A206D070
:1003B6000001010E836F000E846F858483A406D02E
:1003C6000001020E836F000E846F858683A606D019
:1003D6000001030E836F000E846F858883A806D004
:1003E6000001040E836F000E846F858A83AA06D0EF
:1003F6000001050E836F000E846F858C83C000F0AC
:0604060084C001F01200A9
:10040C00CA80CA827C0ECB6E67DE05DF500E0001FF
:10041C00FF6F88DE84848496150E0B6E4B0E0C6E6B
:10042C00BE0E0D6E0D2EFED70C2EFCD70B2EFAD752
:0A043C00000084948496B5DE1200DF
:0A044600000E9EBA010E006E1200B7
:10045000AECF01F0ABA202D0AB98AB8801C000F0E8
:02046000120088
:100462000001FC6BFD6BFE6BFC5107083DE3FF6B6B
:10047200E3DEFCC0FFF04CDEFF6B37DEFB6BFB51B3
:100482003F0811E3FD51F825F66EFE51F921F76E92
:10049200000EFA21F86E0900F5CFFFF041DEFD4BA8
:1004A200FE2BFB2BECD7400EFF6FC6DEFCC0FFF02D
:1004B2002FDE400EFF6F19DE400EFB6FFB517F08EF
:1004C20011E3FD51F825F66EFE51F921F76E000E8B
:1004D200FA21F86E0900F5CFFFF022DEFD4BFE2B6C
:0A04E200FB2BECD7FC2BC0D7120057
:1004EC0076EC1FF0E00E946E800E966E926A996A0E
:1004FC00070E936E986A7F0E956E976AF292F28849
:10050C00F28EF18CF090F086F18A98969898060EFF
:10051C00C16E760ED36EE7DE10DF330EAF6EAC8499
:10052C00AEDE020E0B6E040E0C6EBA0E0D6E0D2EA0
:10053C00FED70C2EFCD70B2EFAD70000950EF86FB9
:10054C00000EF96F82DE79DF0050010AD8A4D7D0F3
:10055C0079DF00C0EEF0B6D0848A870E0001F86F08
:10056C00000EF96F72DE020E0B6E040E0C6EBA0EDC
:10057C000D6E0D2EFED70C2EFCD70B2EFAD70000CD
:10058C00849ABB0EF86F000EF96F5FDEB8D08380D3
:10059C00CC0EF86F000EF96F58DE010E836F000E53
:1005AC00846F050E0B6E0F0E0C6EF10E0D6E0D2E74
:1005BC00FED70C2EFCD70B2EFAD7A1D08382020EBD
:1005CC00836F000E846F240EF86F000EF96F3DDE02
:1005DC00050E0B6E0F0E0C6EF10E0D6E0D2EFED762
:1005EC000C2EFCD70B2EFAD78AD08384030E836F84
:1005FC00000E846F660EF86F000EF96F26DE050E86
:10060C000B6E0F0E0C6EF10E0D6E0D2EFED70C2E0A
:10061C00FCD70B2EFAD773D08386040E836F000E93
:10062C00846F540EF86F000EF96F0FDE050E0B6E13
:10063C000F0E0C6EF10E0D6E0D2EFED70C2EFCD780
:10064C000B2EFAD75CD08388050E836F000E846F57
:10065C00430EF86F000EF96FF8DD050E0B6E0F0EE2
:10066C000C6EF10E0D6E0D2EFED70C2EFCD70B2E34
:10067C00FAD745D08280770EF86F000EF96FE5DD62
:10068C00020E0B6E040E0C6EBA0E0D6E0D2EFED7F6
:10069C000C2EFCD70B2EFAD7000031D08290360EE0
:1006AC00F86F000EF96FD1DD020E0B6E040E0C6E9E
:1006BC00BA0E0D6E0D2EFED70C2EFCD70B2EFAD7C4
:1006CC0000001DD00001EE51300AD8B445D7EE51D0
:1006DC00610AD8B45CD7EE51620AD8B46FD7EE5128
:1006EC00630AD8B482D7EE51640A96E0EE51650ADB
:1006FC00AAE0EE51480ABEE0EE51680ACFE081B4A0
:10070C00838E81A4839E81B402D08488849C83BC14
:10071C0002D0848C849881B003D081B201D015D0E2
:10072C00260EF86F2E0EF96F000EFA6F94DE100E77
:10073C000B6E390E0C6E0D0E0D6E0D2EFED70C2E93
:10074C00FCD70B2EFAD70000000083AC02D08488B3
:10075C00849C83BC02D08498848C1FDE85C000F0FE
:10076C0086C001F0003600900136180E0024E96EA8
:10077C00000E0120EA6EEECF87FF00018551835DEC
:10078C00016E86518459026E800E0218006E800E26
:10079C00005C02E1000E015CD8A094D08551835D11
:1007AC00F26F86518459F36FCA6BCB6B800ECB19E9
:1007BC00006E800EF319005C02E1F251CA5D57E243
:1007CC0085C000F086C001F0003600900136180E8E
:1007DC000024E96E000E0120EA6EEECF87FF10DEDA
:1007EC000001854B862B000E861902E1010E85193E
:1007FC0007E1260EF86F2A0EF96F000EFA6F2BDE4A
:10080C00000E861902E1020E851907E1260EF86F1B
:10081C00260EF96F000EFA6F1EDE000E861902E12D
:10082C00030E851907E1260EF86F3A0EF96F000ECC
:10083C00FA6F11DE000E861902E1040E851907E12C
:10084C00260EF86F360EF96F000EFA6F04DE000EEE
:10085C00861902E1050E851907E1260EF86F320E96
:10086C00F96F000EFA6FF7DDCA4BCB2B9FD7000E3A
:10087C00861902E1010E851902E185941FD0000E44
:10088C00861902E1020E851902E1859617D0000E39
:10089C00861902E1030E851902E185980FD0000E2E
:1008AC00861902E1040E851902E1859A07D0000E23
:1008BC00861902E1050E8519D8B4859C83C085F094
:1008CC0084C086F08551835D016E86518459026E19
:1008DC00800E0218006E800E005C02E1000E015CBE
:1008EC00D8B06FD08351855DF26F84518659F36F08
:1008FC00CA6BCB6B800ECB19006E800EF319005CAB
:10090C0002E1F251CA5D59E285C000F086C001F0E7
:10091C00003600900136180E0024E96E000E0120FE
:10092C00EA6EEECF87FF1CDD010E0001855F000E25
:10093C00865B000E861902E1010E851907E1260E71
:10094C00F86F220EF96F000EFA6F85DD000E861916
:10095C0002E1020E851907E1260EF86F120EF96FEF
:10096C00000EFA6F78DD000E861902E1030E851970
:10097C0007E1260EF86F0E0EF96F000EFA6F6BDDA5
:10098C00000E861902E1040E851907E1260EF86F98
:10099C000A0EF96F000EFA6F5EDD000E861902E189
:1009AC00050E851907E1260EF86F1E0EF96F000E65
:1009BC00FA6F51DDCA4BCB2B9DD783C085F084C019
:1009CC0086F0260EF86F1A0EF96F000EFA6F43DDE3
:1009DC00100E0B6E390E0C6E0D0E0D6E0D2EFED70D
:1009EC000C2EFCD70B2EFAD700000000260EF86F49
:1009FC00160EF96F000EFA6F2EDD100E0B6E390EFF
:100A0C000C6E0D0E0D6E0D2EFED70C2EFCD70B2E74
:0A0A1C00FAD70000000097D5FFD7BD
:103EEC0010EE18F0C60E006E010E016E260EF66E68
:0E3EFC003E0EF76E000EF86E71EC01F0120033
:100A260000000000000000000000000000000000C0
:100A360000000000000000000000000000000000B0
:100A460000000000000000000000000000000000A0
:100A56000000000000000000000000000000000090
:100A66000000000000000000000000000000000080
:100A76000000000000000000000000000000000070
:100A86000000000000000000000000000000000060
:100A96000000000000000000000000000000000050
:100AA6000000000000000000000000000000000040
:100AB6000000000000000000000000000000000030
:100AC6000000000000000000000000000000000020
:100AD6000000000000000000000000000000000010
:100AE6000000000000000000000000000000000000
:100AF60000000000000000000000000000000000F0
:100B060000000000000000000000000000000000DF
:100B160000000000000000000000000000000000CF
:100B260000000000000000000000000000000000BF
:100B360000000000000000000000000000000000AF
:100B4600000000000000000000000000000000009F
:100B5600000000000000000000000000000000008F
:100B6600000000000000000000000000000000007F
:100B7600000000000000000000000000000000006F
:100B8600001020E0E0C0C0C000000000000000002F
:100B96000000C0C0C0E0E02010000000000000001F
:100BA60000000000FE42424242420000C0201010F7
:100BB6001020C00000F00000000000F00000F0204F
:100BC6001010000010FC10101000FF201010102054
:100BD600C0000000000000FE42424242420000FF08
:100BE600000000C02010101020C00000C02010100F
:100BF6001020C00000F020101000000000000000CF
:100C0600000000000003071F1F7FFFFFFFFFFFFF1D
:100C16007F1F1F0703000000000000000000000007
:100C2600000000000F000000000000000304080898
:100C360008040300000304080808040F00000F005E
:100C4600000000000007080808000F000000000070
:100C56000F0000000000000F000000000000000F61
:100C66000000000304080808040300000304080841
:100C760008040300000F0000000000000000000050
:100C86000008107070E0E0E08080808383838380BA
:100C96008080E0E0E07070100800000000000000B6
:100CA600000000000000000000000000000000003E
:100CB600000000000000000000000000000000002E
:100CC600000000000000000000000000000000001E
:100CD600000000000000000000000000000000000E
:100CE60000000000000000000000000000000000FE
:100CF60000000000000000000000000000000000EE
:100D0600000000000001030F0F3F7FFFFFFFFF7F82
:100D16003F0F070301000000000000000000000074
:100D260000000000000000000000000000000000BD
:100D360000000000000000000000000000000000AD
:100D4600000000000000000000000000000000009D
:100D5600000000000000000000000000000000008D
:100D6600000000000000000000000000000000007D
:100D7600000000000000000000000000000000006D
:100D86000000000000000000000000010101010059
:100D9600000000000000000000000000000000004D
:100DA600000000000000000000000000000000003D
:100DB600000000000000000000000000000000002D
:100DC600000000000000000000000000000000001D
:100DD600000000000000000000000000000000000D
:100DE60000000000000000000000000000000000FD
:100DF60000000000000000000000000000000000ED
:100E060000000000000000000000000000000000DC
:100E160000000000000000000000000000000000CC
:100E260000000000000000000000000000000000BC
:100E360000000000000000000000000000000000AC
:100E4600000000000000000000000000000000009C
:100E5600000000000000000000000000000000008C
:100E6600000000000000000000000000000000007C
:100E7600000000000000000000000000000000006C
:100E8600000000000000000000000000000000005C
:100E9600000000000000000000000000000000004C
:100EA600000000000000000000000000000000003C
:100EB600000000000000000000000000000000002C
:100EC600000000000000000000000000000000001C
:100ED600000000000000000000000000000000000C
:100EE60000000000000000000000000000000000FC
:100EF60000000000000000000000000000000000EC
:100F060000000000000000000000000000000000DB
:100F160000000000000000000000000000000000CB
:100F260000000000000000000000000000000000BB
:100F360000000000000000000000000000000000AB
:100F4600000000000000000000000000000000009B
:100F5600000000000000000000000000000000008B
:100F6600000000000000000000000000000000007B
:100F7600000000000000000000000000000000006B
:100F8600000004083838F0F0F0C0C0C0C0C0C0C0CF
:100F9600C0C0C0F0F0F038380804000000000000BF
:100FA6000000000000000000000000000000040433
:100FB60004FC0404040000FE4020202040800000C1
:100FC600E8000000E0402020000080402020204073
:100FD600FE000000000000FC84848484840000FE7F
:100FE600000000804020202040800000804020201B
:100FF6002040800000E040202000000000000000AB
:10100600000000000000000107071F3FFFFFFFFF71
:101016003F1F07070100000000000000000000005D
:1010260000000000000000000000000000000000BA
:10103600001F00000000001F00000000001F00004D
:101046001F0000001F000000000007081010100815
:101056001F0000000000001F000000000000001F2D
:1010660000000007081010100807000007081010FD
:1010760010080700001F000000000000000000002C
:10108600000002041C1C78F8F8E0E0E0E0E0E0E094
:10109600E0E0E0F8F8781C1C040200000000000004
:1010A600000000000000000000000000000000003A
:1010B600000000000000000000000000000000002A
:1010C600000000000000000000000000000000001A
:1010D600000000000000000000000000000000000A
:1010E60000000000000000000000000000000000FA
:1010F60000000000000000000000000000000000EA
:10110600000000000000000003030F1F7F7F7F7FA9
:101116001F0F030100000000000000000000000097
:1011260000000000000000000000000000000000B9
:1011360000000000000000000000000000000000A9
:101146000000000000000000000000000000000099
:101156000000000000000000000000000000000089
:10138600000008107070E0E0E0808080808080803F
:10139600808080E0E0E0707010080000000000002F
:1013A60000000000000038448484040800008040E7
:1013B600202020C0000080402020204000804020C7
:1013C600202040800000E040202020408000008057
:1013D6004020202040FE000000000000FC848484A1
:1013E60084840000FE000000804020202040800011
:1013F60000804020202040800000E04020000000C7
:1014060000000000000001030F0F3F7FFFFFFFFFFA
:101416007F3F0F0F03010000000000008000000066
:1014260000000000000008101010110E000007094F
:101436001111110900000708101010080007081004
:101446001010080700001F00000000001F00000722
:1014560008101010081F0000000000001F00000008
:10146600000000001F000000070810101008070009
:10147600000708101010080700001F0000000000F9
:10148600000004083838F0F0F0C0C0C0C1C1C1C1C6
:10149600C0C0C0F0F0F038380804000000000000BA
:1014A6000000000000000000000000000000000036
:1014B6000000000000000000000000000000000026
:1014C6000000000000000000000000000000000016
:1014D6000000000000000000000000000000000006
:1014E60000000000000000000000000000000000F6
:1014F60000000000000000000000000000000000E6
:10150600000000000000000107071F3FFFFFFFFF6C
:101516003F1F07030100000000000000000000005C
:1015260000000000000000000000000000000000B5
:1015360000000000000000000000000000000000A5
:101546000000000000000000000000000000000095
:101556000000000000000000000000000000000085
:101566000000000000000000000000000000000075
:101576000000000000000000000000000000000065
:101586000000000000000000000000000000000055
:101596000000000000000000000000000000000045
:1015A6000000000000000000000000000000000035
:1015B6000000000000000000000000000000000025
:1015C6000000000000000000000000000000000015
:1015D6000000000000000000000000000000000005
:1015E60000000000000000000000000000000000F5
:1015F60000000000000000000000000000000000E5
:1016060000000000000000000000000000000000D4
:1016160000000000000000000000000000000000C4
:1016260000000000000000000000000000000000B4
:1016360000000000000000000000000000000000A4
:101646000000000000000000000000000000000094
:101656000000000000000000000000000000000084
:101666000000000000000000000000000000000074
:101676000000000000000000000000000000000064
:101686000000000000000000000000000000000054
:101696000000000000000000000000000000000044
:1016A60000000000000000FFFFFFFFBBBB00FFFFC4
:1016B600FF008000FFFFFFB3BB800FFFFFF0FFFFBF
:1016C60007F8FFFFCFFFFFE00303FFFFFB03FCFF6D
:1016D600FF83FFFFFE00FFFFFF3BFFFFEE00000062
:1016E60000000000000000000000000000000000F4
:1016F600000080C0C0C080000000000000000000A4
:101706000040C0C0C040404040C0C0C040000000D3
:1017160000000000000000000000000000000000C3
:101726000000000000000001C1E1E161E1E0C1014B
:10173600010101C1E1E161E1E1C100E1E1E16161D4
:1017460000C1E1E160E1E1C100E1E1E1E1E0C00108
:10175600E1E3E3010100E1E1E16061610100000014
:101766000000000000C0E030303030303030B0B41F
:10177600B6B7373534343537373634B0B0B0B03025
:10178600303030313333363637B3B1B0B030303035
:1017960030303030E0C000000000000000000000E3
:1017A6000000000000000000383878677F7F3F00A7
:1017B6000000003F7F7F36070703007F7F7F667646
:1017C600201F3F7F607F3F3F007F7F3F0707070067
:1017D6007F7F7F6060207F7F7F66766600000000E7
:1017E6000000000000FFFF00000080C0E76F3939ED
:1017F600393D6FE6C0800000C0C66F6F3939396F5A
:101806006FC080000080C0E66F393939396FE6C095
:1018160080000000FFFF0000000000000000000044
:10182600000000000000000000F8F8F8F8F8F8F8EA
:10183600F8F0000000F8F8F8F8F8F8F8F8F8000002
:1018460000F0F8F8F8F8F8F8F8F8F88000000078F2
:10185600F8F8F8F8C080F8F8F8F8F8080000000082
:101866000000000000FFFF0000003F7FE0E00000F6
:101876000000E0E03F3F003F3FFFE0C0000000C047
:10188600E07F3F00003F3FE0E000000000E0E07F37
:101896003F000000FFFF0000000000000000000005
:1018A600000000000000000000FFFFFFFFFF077FB1
:1018B600FFFFFEE0FFFFFF7F03FFFFFFFFFF0000CC
:1018C600F8FFFFFFFF9F80FFFFFFFFFF8000000084
:1018D600F7FFFFFFFFFFFFFFFFF78000000000009C
:1018E60000000000007F7FC0C0C0C0C0DFDFD8D8C6
:1018F600D8D8DFDFC0C0C0C0C0CFDFDFD8D8D8DFC0
:10190600DFCFC0C0C0C0C0DFDFD8D8D8D8DFDFC0C7
:10191600C0C0C0C07F7F00000000000000000000C3
:101926000000000000000000003F3F3F3F3F000076
:10193600073F3F3F3F3F0700003F3F3F3F3F0038E5
:101946003F3F3F3F1F0707073F3F3F3F3F00383FAF
:101956003F3F3F1F01011F3F3F3F3F380000000050
:101966000000000000000000000000000000000071
:101976000000000000000000000000000000000061
:101986000000000000000000000000000000000051
:101996000000000000000000000000000000000041
:1019A6000000000000000000000000000000000031
:1019B6000000000000000000000000000000000021
:1019C6000000000000000000000000000000000011
:1019D6000000000000000000000000000000000001
:1019E60000000000000000000000000000000000F1
:1019F60000000000000000000000000000000000E1
:101A060000000000000000000000000000000000D0
:101A160000000000000000000000000000000000C0
:101A260000000000000000000000000000000000B0
:101A360000000000000000000000000000000000A0
:101A46000000000000000000000000000000000090
:101A56000000000000000000000000000000000080
:101A66000000000000000000000000000000000070
:101A76000000000000000000000000000000000060
:101A86000000000000000000000000000000000050
:101A96000000000000000000000000000000000040
:101AA60000000000000000000000008080808080B0
:101AB6008080808080808080808080008000808020
:101AC6000080008000808080808080808000808010
:101AD6000080008000800080B0B8B838B8B838B848
:101AE60030808000008000808080800080008080C0
:101AF60080808080808000808000808000800080E0
:101B0600808080008080808000808080C08080808F
:101B160080800000000000000000000000000000BF
:101B2600000000000000000007070703030303434B
:101B36007B7302757A03737B0203787B03727903E6
:101B4600007B7003707201033332013332020133BA
:101B56000003303300030302010303000303000301
:101B6600000203000211303B0301330201133A0164
:101B7600C36B03023B7B007B7B0002797B03787B94
:101B8600037B7B20037B7A03787B0303030303FF3A
:101B9600F703000000000000000000000000000045
:101BA600F0E0E020E0E0E0E00080000080800098C7
:101BB600B8B880B8B8C0D8B8A88038B8C0F8F8E0C7
:101BC600C0B8B88038B880BCBC80803C9C80BCBCA7
:101BD6008080BCBC809CBC8480BCBC80FCFCD48067
:101BE600BCBC8094BC9C809CFCC0E0FCFCE0FCFC83
:101BF600C0C0DCFCC0FCE0FCFCFCF8FCFCC0BCBCCF
:101C060080BCBCBC80BCBC00BCBC8000000000BF6B
:101C16009F80A0A0A080C050C0D0E0E0E0E0E0E857
:101C2600DFDEFFFFFFFFFF7F7FFEFD7F7F7F7FFF02
:101C3600FDFFFFFFFFFFFFFFFFFFFFFFFFFFFFFFB0
:101C4600FFFFFFFFFFFFFFFFFFFF7F7F7FBFFF7FDE
:101C56007F7FFFFBC3FFFFFFFFFFFFFFFFFFFFFFCE
:101C6600FFFFFFFFFFE3037B7B03037B7F03FBFB9E
:101C760087C7FBFF1FFFFFFFFFFFFFFFFFFFFFFF02
:101C8600FFFFFDFFFFFFFFFFFFFF7F7DFFFF7FFFE2
:101C9600FFFFFFFFFFFFFFFFFFFFFFFFFFFFFFFF4E
:101CA6007E7E7E5E5F7F3F3E3E3F3F3E3E1E1E1F68
:101CB6001E1F1E0F0F0F0F0F8F8F8F0F07474F0F10
:101CC6000F0F2F0B0B0B0B0B0B0B0BFB0F0F0F0E33
:101CD6000F0E0F8B8F8F8F8F8F8F858FCFCF8F8F1D
:101CE6008FCF8F8FCFCF8F0F0F0E0FFFFF0F0E0FE0
:101CF6000E0E070F0E0707070707070707070F0B45
:101D06000B0F0F0F0F0F0F1F1F1F1717171F1C1F6C
:101D16003F3D3F2F7F377F7F7F7F7F7F7F7D7FFFA9
:101D2600203010101010080808080C0404040402DF
:101D36000202000001010100000000000000000096
:101D46000000000000000000000080FF004200FFCD
:101D5600FFFFFFFFFFFFFFFFFFFFBFBFBFBFBFFFCD
:101D6600BFBFBFFFFFBFFFBFFFFFBBFFFF60C0805E
:101D7600000000000000000000000000000000005D
:101D8600000000000000000000000000000000004D
:101D9600000000000000000000000000000000003D
:101DA600000000000000000000000000000000002D
:101DB600000000000000000000000000000000001D
:101DC60080C0E0E0F0F8FCFCFFFFFFFF455544EB68
:101DD600ABBBABBBBBBBBBBBABBBBBBBBBBBBBBB7D
:101DE600BBBBBBBBBBBBBBBBBBBBBBFFFF39FFFFAF
:101DF600FF7EFCF8F8F0F0C0C08000000000000094
:101E060000000000000000000000000000000000CC
:101E160000000000000000000000000000000000BC
:101E260000000000000000000000000000000000AC
:101E3600000000000000000000000000000000009C
:101E4600000000000000000000000000000000008C
:101E5600000000000000000000000000000000007C
:101E6600000000000000000000000000000000006C
:101E7600000000000000000000000000000000005C
:101E8600000000000000000000000000000000004C
:101E9600000000000000000000000000000000003C
:101EA600000000000000000000000000000000002C
:101EB600000000000000000000000000000000001C
:101EC600000000000000000000000000000000000C
:101ED60000000000000000000000000000000000FC
:101EE60000000000000000000000000000000000EC
:101EF60000000000000000000000000000000000DC
:101F060000000000000000000000000000000000CB
:101F160000000000000000000000000000000000BB
:101F26000000000000000000000000E0202020204B
:101F360020000040000000E01010100000C000006B
:101F46000000F0000000000000000000000000E0BB
:101F560020202020200000F00000000000000000EB
:101F6600000000000000000000000000000000006B
:101F7600000000000000000000000000000000005B
:101F860002041C1C78F8F8E0E0E0E0E0E0E0E0E0C5
:101F9600E0F8F8781C1C04020000000000000000B5
:101FA6000000000000000000000000FF040404041C
:101FB600040000FF000001FF01010000017F818194
:101FC6008100FF0201010102FC000000000000FF89
:101FD60004040404040000FF0000003C42818181E7
:101FE600423C00003C42818181423C0000FF0201EC
:101FF60001000000000000000000000000000000DA
:1020060000000000000003030F1F7F7F7F7F1F0F6C
:1020160003030000000000000000000000000000B4
:1020260000000000000000000000000000000000AA
:10203600000000000000000000000000000000009A
:10204600000000000000000000000000000000008A
:10205600000000000000000000000000000000007A
:10206600000000000000000000000000000000006A
:10207600000000000000000000000000000000005A
:1020860001020E0E3C7CFCF0F0F0F0F0F0F0F0F007
:10209600F0FC7C3C0E0E0201000000000000000077
:1020A600000000000000000000000000000000002A
:1020B600000000000000000000000000000000001A
:1020C600000000000000000000000000000000000A
:1020D60000000000000000000000000000000000FA
:1020E60000000000000000000000000000000000EA
:1020F60000000000000000000000000000000000DA
:102106000000000000000001070F3F3F3F3F0F07A0
:1021160001010000000000000000000000000000B7
:1021260000000000000000000000000000000000A9
:102136000000000000000000000000000000000099
:102146000000000000000000000000000000000089
:102156000000000000000000000000000000000079
:10237600000000000000000000000000000008103F
:102386007070E0E0E080808080808080808080E0E7
:10239600E0E070701008000000000000000000007F
:1023A60000000000000000000000000000000084A3
:1023B600FC848484840400E6E60000E0E0402020FB
:1023C60000C020202020002020FC2020000000004B
:1023D6000000FCFC848484840000FEFE0000804033
:1023E60020202060C0800000C07030303070C000F7
:1023F6000000F04030300000000000000000000047
:10240600000001030F0F3F7FFFFFFFFF7F3F0F0F0E
:1024160003010000000000000000000000000000B2
:1024260000000000000000000000000000000000A6
:102436003F0000000000003F3F00003F3F0000005B
:1024460000212322261C0000003F2020000000005F
:1024560000003F3F0000000000003F3F00001F104B
:1024660020202030180F00071F30202020301F07A3
:1024760000003F000000000000000000000004080B
:102486003838F0F0F0C0C0C0C1C1C1C1C0C0C0F092
:10249600F0F03838080400000000000000000000DA
:1024A6000000000000000000000000000000000026
:1024B6000000000000000000000000000000000016
:1024C6000000000000000000000000000000000006
:1024D60000000000000000000000000000000000F6
:1024E60000000000000000000000000000000000E6
:1024F60000000000000000000000000000000000D6
:102506000000000107071F3FFFFFFFFF3F1F0703F4
:1025160001000000000000000000000000000000B4
:1025260000000000000000000000000000000000A5
:102536000000000000000000000000000000000095
:102546000000000000000000000000000000000085
:102556000000000000000000000000000000000075
:102566000000000000000000000000000000000065
:102576000000000000000000000000000000000055
:102586000000000000000000000000000000000045
:102596000000000000000000000000000000000035
:1025A6000000000000000000000000000000000025
:1025B6000000000000000000000000000000000015
:1025C6000000000000000000000000000000000005
:1025D60000000000000000000000000000000000F5
:1025E60000000000000000000000000000000000E5
:1025F60000000000000000000000000000000000D5
:1026060000000000000000000000000000000000C4
:1026160000000000000000000000000000000000B4
:1026260000000000000000000000000000000000A4
:102636000000000000000000000000000000000094
:102646000000000000000000000000000000000084
:102656000000000000000000000000000000000074
:102666000000000000000000000000000000000064
:102676000000000000000000000000000000000054
:102686000000000000000000000000000000000044
:102696000000000000000000000000000000000034
:1026A6000000000000000000000000000000000024
:1026B6000000000000000000000000000000000014
:1026C6000000000000000000000000000000000004
:1026D60000000000000000000000000000000000F4
:1026E60000000000000000000000000000000000E4
:1026F60000000000000000000000000000000000D4
:1027060000000000000000000080E0E0E0E0800043
:1027160000000000000000000000000000000000B3
:1027260000000000000000000000000000000000A3
:102736000000000000000000000000000000000093
:102746000000000000000000000000000000000083
:102756000000000000000000000000000000000073
:102766000000000000000000000000000000000063
:102776000000000000000000000000000000000053
:1027860000008080E0F0F87C7F7F7F7F7F7F7F7F07
:102796007CFCF0E0808000000000000000000000EB
:1027A60000000000000038448484040800008040D3
:1027B600202020C0000080402020204000804020B3
:1027C600202040800000E040202020408000008043
:1027D6004020202040FE000000000000FC8484848D
:1027E60084840000FE0000008040202020408000FD
:1027F60000804020202040800000E0402020000093
:10280600040203030101010080C0F0F0F0F0C08073
:1028160000010101030302040000000000000000A3
:1028260000000000000008101010110E000007093B
:1028360011111109000007081010100800070810F0
:102846001010080700001F00000000001F0000070E
:1028560008101010081F0000000000001F000000F4
:10286600000000001F0000000708101010080700F5
:10287600000708101010080700001F0000000000E5
:102886000000C0C0F0F8FE3E3F3F3F3F3F3F3F3FA6
:102896003EFEF8F0C0C0000000000000000000008E
:1028A6000000000000000000000000000000000022
:1028B6000000000000000000000000000000000012
:1028C6000000000000000000000000000000000002
:1028D60000000000000000000000000000000000F2
:1028E60000000000000000000000000000000000E2
:1028F60000000000000000000000000000000000D2
:1029060002010101000000000000000000000000BC
:1029160000000000010101020000000000000000AC
:1029260000000000000000000000000000000000A1
:102936000000000000000000000000000000000091
:102946000000000000000000000000000000000081
:102956000000000000000000000000000000000071
:102966000000000000000000000000000000000061
:102976000000000000000000000000000000000051
:102986000000000000000000000000000000000041
:102996000000000000000000000000000000000031
:1029A6000000000000000000000000000000000021
:1029B6000000000000000000000000000000000011
:1029C6000000000000000000000000000000000001
:1029D60000000000000000000000000000000000F1
:1029E60000000000000000000000000000000000E1
:1029F60000000000000000000000000000000000D1
:102A060000000000000000000000000000000000C0
:102A160000000000000000000000000000000000B0
:102A260000000000000000000000000000000000A0
:102A36000000000000000000000000000000000090
:102A46000000000000000000000000000000000080
:102A56000000000000000000000000000000000070
:102A66000000000000000000000000000000000060
:102A76000000000000000000000000000000000050
:102A86000000000000000000000000000000000040
:102A96000000000000000000000000000000000030
:102AA6000000000000000000000000000000000020
:102AB6000000000000000000000000000000000010
:102AC6000000000000000000000000000000000000
:102AD60000000000000000000000000000000000F0
:102AE60000000000000000000000000000000000E0
:102AF60000000000000000000000000000000000D0
:102B06000000000080E0E0E0E0800000000000003F
:102B160000000000000000000000000000000000AF
:102B2600000000000000000000000000000000009F
:102B3600000000000000000000000000000000008F
:102B4600000000000000000000000000000000007F
:102B5600000000000000000000000000000000006F
:102B6600000000000000000000000000000000005F
:102B7600000000000000000000000000008080E06F
:102B8600F0F87C7F7F7F7F7F7F7F7F7CFCF0E0801B
:102B960080000000000000000000000000000000AF
:102BA600000000000000000000000000000000849B
:102BB600FC848484840400E6E60000E0E0402020F3
:102BC60000C020202020002020FC20200000000043
:102BD6000000FCFC848484840000FEFE000080402B
:102BE60020202060C0800000C07030303070C000EF
:102BF6000000F04030300000000000040203030132
:102C060001010080C0F0F0F0F0C080000101010376
:102C160003020400000000000000000000000000A5
:102C2600000000000000000000000000000000009E
:102C36003F0000000000003F3F00003F3F00000053
:102C460000212322261C0000003F20200000000057
:102C560000003F3F0000000000003F3F00001F1043
:102C660020202030180F00071F30202020301F079B
:102C760000003F00000000000000000000C0C0F09F
:102C8600F8FE3E3F3F3F3F3F3F3F3F3EFEF8F0C02E
:102C9600C00000000000000000000000000000006E
:102CA600000000000000000000000000000000001E
:102CB600000000000000000000000000000000000E
:102CC60000000000000000000000000000000000FE
:102CD60000000000000000000000000000000000EE
:102CE60000000000000000000000000000000000DE
:102CF60000000000000000000000000201010100C9
:102D060000000000000000000000000000000001BC
:102D160001010200000000000000000000000000A9
:102D2600000000000000000000000000000000009D
:102D3600000000000000000000000000000000008D
:102D4600000000000000000000000000000000007D
:102D5600000000000000000000000000000000006D
:102D6600000000000000000000000000000000005D
:102D7600000000000000000000000000000000004D
:102D8600000000000000000000000000000000003D
:102D9600000000000000000000000000000000002D
:102DA600000000000000000000000000000000001D
:102DB600000000000000000000000000000000000D
:102DC60000000000000000000000000000000000FD
:102DD60000000000000000000000000000000000ED
:102DE60000000000000000000000000000000000DD
:102DF60000000000000000000000000000000000CD
:102E060000000000000000000000000000000000BC
:102E160000000000000000000000000000000000AC
:102E26000000FCFCFCFCFCFCFCFCFCFCFCFCFCFCD4
:102E3600FCFCFCFCFCFCFCFCFCFCFCFCFCFCFCFCCC
:102E4600FCFCFCFCFCFCFCFCFCFCFCFCFCFCFCFCBC
:102E5600FCFCFCFCFCFCFCFCFCFCFCFCFCFCFCFCAC
:102E6600FCFCFCFCFCFCFCFCFCFCFCFCFCFCFCFC9C
:102E7600FCFCFCFCFCFCFCFCFCFCFCFCFCFCFCFC8C
:102E86007C3C3C3C3C3C3C3C3C3C3C3C3C3C3C3C3C
:102E96003C3C3C3C3C3C3C3C3C7CFCFCFCFC0000A4
:102EA6000000FFFFFFFFFFFFFFFFFFFFFFFFFFFF2A
:102EB600FFFFFFFFFFFFFFFFFFFFFFFFFFFF1F0FEC
:102EC60007030303030307071FFFFFFFFFFFFFFFC0
:102ED600FFFFFFFFFFFFFFFFFFFFFFFFFFFFFFFFFC
:102EE600FFFFFFFFFFFFFFFFFFFFFFFFFFFFFFFFEC
:102EF600FFFFFFFFFFFFFFFFFFFFFFFFFFFFFFFFDC
:102F060000000000000000000000000000000000BB
:102F160000000000000000000000FFFFFFFF0000AF
:102F26000000FFFFFFFFFFFFFFFFFFFFFF7F1F0FF9
:102F3600030181C1E1E1E1E1E1E121010101060CC9
:102F46001810101030F0F8F8FEFFFFFFFFFFFFFF2C
:102F5600FFFFFFFFFFFFFFFFFFFFFFFFFFFFFFFF7B
:102F6600FFFFFFFFFFFFFFFFFFFFFFFFFFFFFFFF6B
:102F7600FFFFFFFFFFFFFFFFFFFFFFFFFFFFFFFF5B
:102F8600000000000000000000000000000000003B
:102F960000000000000000000000FFFFFFFF00002F
:102FA6000000FFFFFFFFFFFFFFFFFFF3F1E0E0F090
:102FB600F8FEFFFFFF3F1F0701000000000000C0F2
:102FC60000000000003F3F3F3F3F3F3F3F3F3FFF86
:102FD600FFFFFFFFFF3F3F3F3F3F3F3F3F3F3F3F3B
:102FE6003F3F3F3F3F3F3F3F3F3F3F3F3F0F1F1F5B
:102FF6001F3F3F3F7F7F7FFFFFFFFFFFFFFFFFFF7B
:1030060000000000000000000000000000000000BA
:1030160000000000000000000000FFFFFFFF0000AE
:103026000000FFFFFFFFFFFFFFFFFFFFFFFFFFFFA8
:10303600FFFF07030000000000000000307C7FFF58
:10304600FCF8F8F8F8F8F8F8F8F8F8F8F8F8F8FFEF
:10305600FFFFFFFFFFFCF8F8F8F8F8F8F8F8F8F8C3
:10306600F8F8F8F8F8F8F8F8F8F8F8F8F8F0F0F0F2
:10307600F8F8F8FCFCFCFEFEFEFFFFFFFFFFFFFF7B
:10308600000000000000000000000000000000003A
:1030960000000000000000000000FFFFFFFF00002E
:1030A6000000FFFFFFFF3F3F3F3F3F3F3F3F3F3FA8
:1030B6003F7F0000000000FFFEFCFCF8F8F0E0E0B7
:1030C6000001030307FFFFFFFFFFFFFFFFFFFFFFF7
:1030D600FFFFFFFFFFFFFFFFFFFFFFFFFFFFFFFFFA
:1030E600FFFFFFFFFFFFFFFFFFFFFFFFFFFFFFFFEA
:1030F600FFFFFFFFFFFFFFFFFFFFFFFFFFFFFFFFDA
:1031060000000000000000000000000000000000B9
:1031160000000000000000000000FFFFFFFF0000AD
:103126000000FFFFFFFFF8F8F8F8F8F8F8F8F8F8ED
:10313600F8F8F8F8F8F8F8FFFFFFFFFFFFFFFFFFCA
:103146000000000000FFFFFFFFFFFFFFFFFFFFFF84
:10315600FFFFFFFFFFFFFFFFFFFFFFFFFFFFFFFF79
:10316600FFFFFFFFFFFFFFFFFFFFFFFFFFFFFFFF69
:10317600FFFFFFFFFFFFFFFFFFFFFFFFFFFFFFFF59
:103186000000000000000000000000000000000039
:1031960000000000000000000000FFFFFFFF00002D
:1031A60000003F3F3F3F3F3F3F3F3F3F3F3F3F3FA7
:1031B6003F3F3F3F3F3F3F3F3F3F3F3F3F3F3F3F19
:1031C6003C3C3C3C3C3F3F3F3F3F3F3F3F3F3F3F18
:1031D6003F3F3F3F3F3F3F3F3F3F3F3F3F3F3F3FF9
:1031E6003F3F3F3F3F3F3F3F3F3F3F3F3F3F3F3FE9
:1031F6003F3F3F3F3F3F3F3F3F3F3F3F3F3F3F3FD9
:103206003C3C3C3C3C3C3C3C3C3C3C3C3C3C3C3CF8
:103216003C3C3C3C3C3C3C3C3C3E3F3F3F3F000052
:103226000000000000000000000000000000000098
:103236000000000000000000000000000000000088
:103246000000000000000000000000000000000078
:103256000000000000000000000000000000000068
:103266000000000000000000000000000000000058
:103276000000000000000000000000000000000048
:103286000000000000000000000000000000000038
:103296000000000000000000000000000000000028
:1032A6000000000000000000000000000000000018
:1032B6000000000000000000000000000000000008
:1032C60000000000000000000000000000000000F8
:1032D60000000000000000000000000000000000E8
:1032E60000000000000000000000000000000000D8
:1032F60000000000000000000000000000000000C8
:1033060000000000000000000080E0E0E0E0800037
:1033160000000000000000000000000000000000A7
:103326000000000000000000000000E02020202037
:1033360020000040000000E01010100000C0000057
:103346000000F0000000000000000000000000E0A7
:1033560020202020200000F00000000000000000D7
:103366000000000000000000000000000000000057
:103376000000000000000000000000000000000047
:1033860000008080E0F0F87C7F7F7F7F7F7F7F7FFB
:103396007CFCF0E0808000000000000000000000DF
:1033A6000000000000000000000000FF0404040408
:1033B600040000FF000001FF01010000017F818180
:1033C6008100FF0201010102FC000000000000FF75
:1033D60004040404040000FF0000003C42818181D3
:1033E600423C00003C42818181423C0000FF0201D8
:1033F60001000000000000000000000000000000C6
:10340600040203030101010080C0F0F0F0F0C08067
:103416000001010103030204000000000000000097
:103426000000000000000000000000000000000096
:103436000000000000000000000000000000000086
:103446000000000000000000000000000000000076
:103456000000000000000000000000000000000066
:103466000000000000000000000000000000000056
:103476000000000000000000000000000000000046
:103486000000C0C0F0F8FE3E3F3F3F3F3F3F3F3F9A
:103496003EFEF8F0C0C00000000000000000000082
:1034A6000000000000000000000000000000000016
:1034B6000000000000000000000000000000000006
:1034C60000000000000000000000000000000000F6
:1034D60000000000000000000000000000000000E6
:1034E60000000000000000000000000000000000D6
:1034F60000000000000000000000000000000000C6
:1035060002010101000000000000000000000000B0
:1035160000000000010101020000000000000000A0
:103526000000000000000000000000000000000095
:103536000000000000000000000000000000000085
:103546000000000000000000000000000000000075
:103556000000000000000000000000000000000065
:103566000000000000000000000000000000000055
:103576000000000000000000000000000000000045
:103586000000000000000000000000000000000035
:103596000000000000000000000000000000000025
:1035A6000000000000000000000000000000000015
:1035B6000000000000000000000000000000000005
:1035C60000000000000000000000000000000000F5
:1035D60000000000000000000000000000000000E5
:1035E60000000000000000000000000000000000D5
:1035F60000000000000000000000000000000000C5
:1036060000000000000000000000000000000000B4
:1036160000000000000000000000000000000000A4
:103626000000000000000000000000000000000094
:103636000000000000000000000000000000000084
:103646000000000000000000000000000000000074
:103656000000000000000000000000000000000064
:103666000000000000000000000000000000000054
:103676000000000000000000000000000000000044
:103686000000000000000000000000000000000034
:103696000000000000000000000000000000000024
:1036A6000000000000000000000000000000000014
:1036B6000000000000000000000000000000000004
:1036C60000000000000000000000000000000000F4
:1036D60000000000000000000000000000000000E4
:1036E60000000000000000000000000000000000D4
:1036F60000000000000000000000000000000000C4
:1037060000000000000000000080E0E0E0E0800033
:1037160000000000000000000000000000000000A3
:103726000000000000000000000000000000000093
:103736000000000000000000000000000000000083
:103746000000000000000000000000000000000073
:103756000000000000000000000000000000000063
:103766000000000000000000000000000000000053
:103776000000000000000000000000000000000043
:1037860000008080E0F0F87C7F7F7F7F7F7F7F7FF7
:103796007CFCF0E0808000000000000000000000DB
:1037A60000000000FE42424242420000C0201010CB
:1037B6001020C00000F00000000000F00000F02023
:1037C6001010000010FC10101000FF201010102028
:1037D600C0000000000000FE42424242420000FFDC
:1037E600000000C02010101020C00000C0201010E3
:1037F6001020C00000F020101000000000000000A3
:10380600040203030101010080C0F0F0F0F0C08063
:103816000001010103030204000000000000000093
:10382600000000000F00000000000000030408086C
:1038360008040300000304080808040F00000F0032
:10384600000000000007080808000F000000000044
:103856000F0000000000000F000000000000000F35
:103866000000000304080808040300000304080815
:1038760008040300000F0000000000000000000024
:103886000000C0C0F0F8FE3E3F3F3F3F3F3F3F3F96
:103896003EFEF8F0C0C0000000000000000000007E
:1038A6000000000000000000000000000000000012
:1038B6000000000000000000000000000000000002
:1038C60000000000000000000000000000000000F2
:1038D60000000000000000000000000000000000E2
:1038E60000000000000000000000000000000000D2
:1038F60000000000000000000000000000000000C2
:1039060002010101000000000000000000000000AC
:10391600000000000101010200000000000000009C
:103926000000000000000000000000000000000091
:103936000000000000000000000000000000000081
:103946000000000000000000000000000000000071
:103956000000000000000000000000000000000061
:103966000000000000000000000000000000000051
:103976000000000000000000000000000000000041
:103986000000000000000000000000000000000031
:103996000000000000000000000000000000000021
:1039A6000000000000000000000000000000000011
:1039B6000000000000000000000000000000000001
:1039C60000000000000000000000000000000000F1
:1039D60000000000000000000000000000000000E1
:1039E60000000000000000000000000000000000D1
:1039F60000000000000000000000000000000000C1
:103A060000000000000000000000000000000000B0
:103A160000000000000000000000000000000000A0
:103A26000000000000000000000000000000000090
:103A36000000000000000000000000000000000080
:103A46000000000000000000000000000000000070
:103A56000000000000000000000000000000000060
:103A66000000000000000000000000000000000050
:103A76000000000000000000000000000000000040
:103A86000000000000000000000000000000000030
:103A96000000000000000000000000000000000020
:103AA6000000000000000000000000000000000010
:103AB6000000000000000000000000000000000000
:103AC60000000000000000000000000000000000F0
:103AD60000000000000000000000000000000000E0
:103AE60000000000000000000000000000000000D0
:103AF60000000000000000000000000000000000C0
:103B060000000000000000000080E0E0E0E080002F
:103B1600000000000000000000000000000000009F
:103B2600000000000000000000000000000000008F
:103B3600000000000000000000000000000000007F
:103B4600000000000000000000000000000000006F
:103B5600000000000000000000000000000000005F
:103B6600000000000000000000000000000000004F
:103B7600000000000000000000000000000000003F
:103B860000008080E0F0F87C7F7F7F7F7F7F7F7FF3
:103B96007CFCF0E0808000000000000000000000D7
:103BA6000000000000000000000000000000040407
:103BB60004FC0404040000FE402020204080000095
:103BC600E8000000E0402020000080402020204047
:103BD600FE000000000000FC84848484840000FE53
:103BE60000000080402020204080000080402020EF
:103BF6002040800000E0402020000000000000007F
:103C0600040203030101010080C0F0F0F0F0C0805F
:103C1600000101010303020400000000000000008F
:103C2600000000000000000000000000000000008E
:103C3600001F00000000001F00000000001F000021
:103C46001F0000001F0000000000070810101008E9
:103C56001F0000000000001F000000000000001F01
:103C660000000007081010100807000007081010D1
:103C760010080700001F0000000000000000000000
:103C86000000C0C0F0F8FE3E3F3F3F3F3F3F3F3F92
:103C96003EFEF8F0C0C0000000000000000000007A
:103CA600000000000000000000000000000000000E
:103CB60000000000000000000000000000000000FE
:103CC60000000000000000000000000000000000EE
:103CD60000000000000000000000000000000000DE
:103CE60000000000000000000000000000000000CE
:103CF60000000000000000000000000000000000BE
:103D060002010101000000000000000000000000A8
:103D16000000000001010102000000000000000098
:103D2600000000000000000000000000000000008D
:103D3600000000000000000000000000000000007D
:103D4600000000000000000000000000000000006D
:103D5600000000000000000000000000000000005D
:103D6600000000000000000000000000000000004D
:103D7600000000000000000000000000000000003D
:103D8600000000000000000000000000000000002D
:103D9600000000000000000000000000000000001D
:103DA600000000000000000000000000000000000D
:103DB60000000000000000000000000000000000FD
:103DC60000000000000000000000000000000000ED
:103DD60000000000000000000000000000000000DD
:103DE60000000000000000000000000000000000CD
:103DF60000000000000000000000000000000000BD
:103E060000000000000000000000000000000000AC
:103E1600000000000000000000000000000000009C
:0C3E26003F0006005B004F0066006D00CE
:103E3200205365636F6E6420466C6F6F72200D0AAB
:023E420020005E
:0D3E44002046414E204F4646200D0A20002A
:103E510020466966746820466C6F6F72200D0A20D7
:013E61000060
:103E620020466F7572746820466C6F6F72200D0A5F
:023E720020002E
:103E740020546869726420466C6F6F72200D0A20AA
:013E8400003D
:0C3E85002046414E204F4E200D0A200028
:023E910000002F
:023E930000002D
:0E3E950020414C41524D204F4E200D0A20007E
:103EA300426C7565746F6F746820636F6E6E6563C3
:103EB30074696F6E206973207375636365737366CA
:063EC300756C200D0A00E1
:0F3EC90020414C41524D204F4646200D0A20000B
:023ED8000000E8
:103EDA0020466972737420466C6F6F72200D0A2037
:013EEA0000D7
:013EEB00389E
:020000040030CA
:0E0000001D037F7CF98B91FFFFC0FFE0FF40E6
:00000001FF
