:1000000043EF0BF00000000000EF00F000000000E4
:0A0010000000000000000000F3D71C
:10001C000F0E0C6E470E0D6E0D2EFED70C2EFCD750
:06002C00000000001200BC
:0A003200210E0D6E0D2EFED71200F8
:06003C00000000001200AC
:080042000AAE029E000E12003E
:10004A000B840BAE30EF00F0010E036E026A016AF8
:0A005A00006A0A360232FF0E12009F
:10006400086A096A100E0C6E013408360936045009
:10007400085E0550D8A0053C095ED8B007D00450EE
:1000840008260550D8B0053C0926D890003601361C
:060094000C2EEAD7120059
:10009A000B820BAE57EF00F0036802680168006834
:0800AA000A360232FF0E1200BB
:0E00B200026A016A006A086A036A000E120000
:1000C0000001D2BF02D0829A01D0828AD2BD02D072
:1000D000809A01D0808AD2BB02D0839001D08380E5
:1000E000D2B902D0829401D08284B8B102D0828089
:1000F00001D082908282A2DF8292D2B702D0829A0D
:1001000001D0828AD2B502D0809A01D0808AD2B33F
:1001100002D0839001D08380D2B102D0829401D0EA
:100120008284B8B102D0828001D08290828286DF40
:0E0130008292B8A102D072DF01D07BDF1200F4
:0E013E000001B891CBC0D2F0BCDFB881120036
:10014C000A6A0350D8A40A800750D8A40A820A501D
:10015C00D8B409EF01F0030AD8B4C2EF00F00AB02A
:10016C00BDEF00F006AE07EF01F005EF01F002AEB7
:10017C0005EF01F007EF01F00250800B0A6E029EB2
:10018C000650800B069E0A18D8B4D3EF00F00A5024
:10019C00D8B405EF01F007EF01F00750035CD8B4B9
:1001AC00DDEF00F0D8A0F9EF00F0FFEF00F0065003
:1001BC00025CD8B4E7EF00F0D8A0F9EF00F0FFEF45
:1001CC0000F00550015CD8B4F1EF00F0D8A0F9EFC5
:1001DC0000F0FFEF00F00450005CD8B409EF01F020
:1001EC00D8B0FFEF00F00A52D8B407EF01F005EFDA
:1001FC0001F00A52D8B405EF01F007EF01F0D880F6
:0E020C001200D8901200D880D8841200120080
:10021A00CBC004F0CCC005F004C002F005C003F066
:10022A00044A052ACDC000F0CEC001F00001CD4B32
:10023A00CE2B00C0E9FF01C0EAFF02C0E1FF03C004
:10024A00E2FFEECFE6FF02C0E9FF03C0EAFFEE528B
:0E025A0001E0E2D7CBC000F0CCC001F01200F2
:100268000CB076EF01F00CA21CEF02F00E6A000E43
:1002780002648DEF01F0F00E0214D8A458EF01F0DB
:10028800023A01380F0B02260138F00B016E0038D4
:100298000F0B01260038F00B006E08380F0B0026F4
:1002A8000838F00B086E0E84D89002BE71EF01F08A
:1002B80008360036013602360E2A02BE71EF01F00A
:1002C80008360036013602360E2A02BE71EF01F0FA
:1002D80008360036013602360E2A0E50036412EF35
:1002E80002F0035E0BBC08AE17EF02F0D880800E58
:1002F80008640030000E002201220222D8A017EF65
:1003080002F0023201320032034A1CEF02F017EF0A
:1003180002F001C002F000C001F008C000F0086A55
:10032800000E0E860264C4EF01F0F00E0214D8A489
:10033800ACEF01F0023A01380F0B02260138F00B3E
:10034800016E00380F0B01260038F00B006E0E848A
:10035800D89002BE71EF01F00036013602360E2A3F
:1003680002BE71EF01F00036013602360E2A02BED7
:1003780071EF01F00036013602360E2A71EF01F0F6
:1003880001C002F000C001F0006A000E0E960E884F
:100398000264F1EF01F0F00E0214D8A4DCEF01F0D2
:1003A800023A01380F0B02260138F00B016E0E8459
:1003B800D89002BE71EF01F0013602360E2A02BE55
:1003C80071EF01F0013602360E2A02BE71EF01F01C
:1003D800013602360E2A71EF01F001C002F0016AFF
:1003E800000E0E86026421EF02F0F00E0214D8A46B
:1003F80000EF02F0023A0E84D89002BE71EF01F0CD
:1004080002360E2A02BE71EF01F002360E2A02BE33
:1004180071EF01F002360E2A71EF01F0010E0C6E39
:1004280010DE24EF02F0020E0C6E07DE24EF02F05D
:10043800040E0C6E2EDE24EF02F0080E0C6E35DE74
:020448001200A0
:10044A000C6A0E6A0250D8A43EEF02F001C002F014
:10045A0000C001F0006A0E860250D8A43EEF02F0F6
:10046A0001C002F0016A0E960E880250D8B450EF0D
:10047A0002F00E50035ED8A4D8A055EF02F0D8902F
:10048A0002BE5AEF02F0003601360236032E45EF5D
:10049A0002F055EF02F0010E0C6E06DE5DEF02F07F
:1004AA00020E0C6ECDDD5DEF02F0040E0C6EC4DDA3
:0204BA0012002E
:0C04BC000E0E0D6E0D2EFED7000012007B
:0804C8000B6A0B86FF0E120007
:1004D000086A096A000E07620364EDEF02F0025039
:1004E00006180A6E075003267E0ED8A07EEF02F093
:1004F000035ED8B0F1EF02F082EF02F0035ED8A005
:10050000F5EF02F0028E068E02C00EF001C00BF075
:1005100000C00DF000500402F4CF0CF001500502B1
:10052000F4CF00F0F3CF08F00402F3500C26F4509F
:100530000822000E00220D500502F3500C26F45044
:100540000822000E002202500402F3500826F45044
:10055000002202500502016A000E0122F35000261B
:10056000F45001220D500602F3500826F4500022E8
:10057000026A000E012202220B500602F3500026EE
:10058000F4500122000E02220E500602F350012602
:10059000F450022202BED5EF02F0083600360136D2
:1005A00002360306D8B4F5EF02F0E8EF02F0D88087
:1005B000800E08640030000E002201220222D8A022
:1005C000E8EF02F0023201320032034AF1EF02F0AA
:1005D0000AAE029E000EF7EF02F0010E6ADDF7EFA1
:1005E00002F0020E5ADDF7EF02F0040E2EDD1200CB
:1005F0000001CF6B050ECF5D0AE2CF51CD25E16E34
:10060000000ECE21E26E200EE66ECF2BF3D7CF5137
:10061000CD25E16E000ECE21E26EE66ACF07CF5106
:10062000CD25D06F000ECE21D16F0A0E046E000EC4
:10063000056ECBC000F0CCC001F014DD08C000F0A6
:1006400009C001F0300E0026D0C0E1FFD1C0E2FFAA
:1006500000C0E6FF0A0E046E000E056ECBC000F06F
:10066000CCC001F0FFDC00C0CBF001C0CCF0000E2C
:10067000011802E1000E001801E102D0CF07CFD728
:02068000120066
:100682000B800BAE4DEF03F0026A0AAEFF0E026E54
:0C069200016E006E0A360232FF0E1200EC
:10069E000D6A086A0050D8B4000C04180A6E0ABE1F
:1006AE000D1E0B6A04AE02D0041E042A00AE02D048
:1006BE00001E002A005004100A6E0ABE1FD00450FD
:1006CE00085E003600340836045008260036060E42
:1006DE000C6E00340836045000B0085E00A00826E8
:1006EE0000360C2EF6D700A008260BB015D00DAE96
:1006FE00000C001E002A081E082A000C04AE09D0A9
:10070E0000BE04D00050086E006AF1D7006A002ABD
:10071E00000C001E0B2AD3D7082A0450085CD8A45C
:0E072E00E6D7086A002A00AEE2D7FF0C1200E0
:10073C000B6A0A6A096A00500402F4CF09F0F3CF7D
:10074C0008F001500502F4CF0BF0F3CF0AF0005083
:10075C000502F3500926F4500A22E86A0B220150D4
:10076C000402F3500926F4500A22E86A0B2208C04E
:10077C0000F009C001F00AC002F00BC003F0120037
:0C078C009592BA840C0E0F015713120056
:0A0798000F01586B5799579B120090
:1007A200C26A4D1C006E0050C1160F0EC012C08EE0
:1007B200BDC000F000360090003600900050C2121A
:1007C200C2807BDEC282C2A201D0FDD7C4CF01F0BB
:1007D200006A00C0BEF001C0BFF0C3500012000E9C
:1007E200011200C0BEF001C0BFF0C290000E0014A2
:1007F200026E0150800B036E000E031802E1000E20
:10080200021803E00001BE6BBF6BBEC000F0BFC0A8
:0408120001F01200DF
:0A081600938AF00E0F015D17120027
:10082000BB50010F006E016A000E0122BDC004F032
:10083000000E056E83DF060E026E00C004F001C0DC
:1008400005F0025005E005320432059EFF0FFAD78D
:10085000040E016E04C000F0015004E00036009068
:10086000FF0FFBD7300E0014036E04C000F005C06C
:1008700001F001320032019E01320032019E00C0BF
:0E08800058FF0F0E0F015717035057131200A9
:10088E00FF0E0001B96FFF0EBA6FFF0EBB6FFF0EAA
:10089E00BC6FC26A4D1C006E0050C1160F0EC01206
:0608AE00C08EC2801200A2
:1008B4000900F5CFE6FF0006FBE10106F9E11200AD
:1008C4009492949094949590929A949A829282900D
:1008D400829A809A839082940EEC00F00EEC00F0E1
:1008E4000EEC00F08380828482821EEC00F08292FF
:1008F4000EEC00F082821EEC00F082920EEC00F00E
:1009040082821EEC00F082920EEC00F082948282CD
:100914001EEC00F082920EEC00F082821EEC00F0DD
:1009240082928390828A82821EEC00F082920EEC84
:1009340000F0829A828482821EEC00F08292829479
:1009440082821EEC00F082920EEC00F082821EEC99
:1009540000F08292828482821EEC00F082920EEC7D
:1009640000F0829482821EEC00F08292828A808A55
:100974008380828482821EEC00F082920EEC00F06E
:060984000001B881120021
:0A098A009582F00E0F0157171200BE
:1009940010D0800E0001BD6F1AD0C00EBD6F17D0ED
:1009A400940EBD6F14D0D40EBD6F11D0800EBD6FE8
:1009B4000ED00001BD51010AECE0BD51020AEDE088
:1009C400BD51030AEDE0BD51040AEDE0EFD7BE05C9
:1009D400006EBD51002600C0BDF000C0D2F060EC36
:1009E40000F0B891C16BC151BF25E96E000EC02162
:1009F400EA6EEE520CE0C151BF25E96E000EC02133
:100A0400EA6EEECFCBF09FEC00F0C12BECD7B881AF
:020A14001200CE
:100A1600025006180E6E086A096A0B6A03500764CC
:100A2600FEEF05F006500A6E068E028E03500B6E20
:100A36000750036E000E0B644EEF05F00B50075E79
:100A4600D8B4EFEF05F0070E0764BDEF05F0075EBB
:100A560000C008F001C000F002C001F0026A074EB3
:100A6600EFEF05F0076492EF05F0075E00C008F0AF
:100A760001C000F0016A074EEFEF05F0076470EF62
:100A860005F0075E00C008F0006A074EEFEF05F0BC
:100A9600076457EF05F00AC002F005C001F004C074
:100AA60000F0086A1BEF07F0030E076462EF05F01B
:100AB600075E08380F0B086E074EEFEF05F0D8906B
:100AC6000832074EEFEF05F0D8900832074EEFEFE9
:100AD60005F0D8900832EFEF05F0030E076481EFBA
:100AE60005F0075E08380F0B086E0038F00B082675
:100AF60000380F0B006E074EEFEF05F0D89000326E
:100B06000832074EEFEF05F0D89000320832074E54
:100B1600EFEF05F0D89000320832EFEF05F0030E44
:100B26000764A9EF05F0075E08380F0B086E00385A
:100B3600F00B082600380F0B006E0138F00B00266C
:100B460001380F0B016E074EEFEF05F0D89001321A
:100B560000320832074EEFEF05F0D890013200322E
:100B66000832074EEFEF05F0D89001320032083216
:100B7600EFEF05F0030E0764DAEF05F0075E0838BD
:100B86000F0B086E0038F00B082600380F0B006EAE
:100B96000138F00B002601380F0B016E0238F00BFE
:100BA600012602380F0B026E074EEFEF05F0D890C4
:100BB6000232013200320832074EEFEF05F0D890CC
:100BC6000232013200320832074EEFEF05F0D890BC
:100BD6000232013200320832096A000E0EAEE3EF2D
:100BE60006F0081E001E011E021E082A002201220F
:100BF6000222E3EF06F00750D8A404EF06F01BEF3D
:100C060007F0096A02C00AF0028E068E0750035CDE
:100C1600076ED8B4D6EF06F0070E0764A4EF06F009
:100C2600075E0450096E0550046E0650056E066A8E
:100C3600074ED6EF06F0070E076479EF06F0075E5B
:100C46000450096E0550046E056A074ED6EF06F08D
:100C5600070E076457EF06F0075E0450096E046A34
:100C6600074ED6EF06F0070E07643EEF06F00AC001
:100C760002F01BEF07F0030E076449EF06F0075E6C
:100C860009380F0B096E074ED6EF06F0D8900932D9
:100C9600074ED6EF06F0D8900932074ED6EF06F08B
:100CA600D8900932D6EF06F0030E076468EF06F017
:100CB600075E09380F0B096E0438F00B0926043855
:100CC6000F0B046E074ED6EF06F0D89004320932A9
:100CD600074ED6EF06F0D89004320932074ED6EF0B
:100CE60006F0D89004320932D6EF06F0030E0764F8
:100CF60090EF06F0075E09380F0B096E0438F00B0B
:100D0600092604380F0B046E0538F00B0426053847
:100D16000F0B056E074ED6EF06F0D890053204325B
:100D26000932074ED6EF06F0D89005320432093262
:100D3600074ED6EF06F0D890053204320932D6EFC8
:100D460006F0030E0764C1EF06F0075E09380F0BC5
:100D5600096E0438F00B092604380F0B046E0538AB
:100D6600F00B042605380F0B056E0638F00B05262A
:100D760006380F0B066E074ED6EF06F0D8900632F1
:100D8600053204320932074ED6EF06F0D890063205
:100D9600053204320932074ED6EF06F0D8900632F5
:100DA600053204320932086A000E0EAEE3EF06F091
:100DB600091E041E051E061E092A042205220622F5
:100DC600095008260450002205500122065002222E
:100DD6000EBEFAEF06F0D8A009EF07F00232013294
:100DE60000320832033E09EF07F015EF07F0D8B0DE
:100DF6000FEF07F0000E081E001E011E021E082A35
:100E06000022012202220A7E0FEF07F0010E0C6E6D
:100E160034EC01F01DEF07F0020E0C6E34EC01F01D
:100E26001DEF07F0040E0C6E4DEC00F01DEF07F001
:060E3600000E0C6E12001C
:100E3C000450000A12E10550000A0FE10650000AA6
:100E4C000CE10750000A09E1FF0E006EFF0E016E67
:100E5C007F0E026EFF0E036EA8D0086A096A075057
:100E6C00D8B4C9EF07F00350D8B4CEEF07F0025056
:100E7C0006180A6E028E068E0E6A02C008F001C0B9
:100E8C000CF000C00DF004500D5E0550D8A0053CD0
:100E9C000C5E0650D8A0063C085E086A0C6A0D6A07
:100EAC00D8A060EF07F0D89002320132003208323D
:100EBC00010E0E6E0750035ED8A06DEF07F07E0E8C
:100ECC000E240326D8B0D3EF07F073EF07F07E0E95
:100EDC000E240326D8A0D8EF07F0180E0B6E0D3693
:100EEC000C3608360036013602360E360450005EDB
:100EFC000550D8A0053C015E0650D8A0063C025E09
:100F0C0006340E120EA08EEF07F00D8099EF07F04D
:100F1C00045000260550D8B0053C01260650D8B028
:100F2C00062802260D900B2E75EF07F0BFEF07F089
:100F3C00D8900036013602360E360450005E05504D
:100F4C00D8A0053C015E0650D8A0063C025E0634D3
:100F5C000E10010B0D26D8B00C2AD8B4082AD8A430
:100F6C00BFEF07F008320C320D32032AD8B4D3EF9E
:100F7C0007F00AAE089E0850026E0C50016E0D5020
:100F8C00006EDBEF07F0010E64EC02F0DBEF07F014
:100F9C00020E59EC00F0DBEF07F0040E4DEC00F004
:0C0FAC00DBEF07F0080E25EC00F012004F
:100FB8000001C36BC46BBDC0C5F0BEC0C6F0800ED7
:100FC800BE19006E800E005C02E1000EBD5D0BE2F2
:100FD800010EC36F000EC46FBD510008C56FBEC0BF
:100FE800C6F0000EC657C5C0CBF0C6C0CCF0BFC017
:100FF800CDF0C0C0CEF0F8EC02F0060EC16F000EC6
:10100800C26F000E006EC251005C02E1C1510008BF
:1010180019E2C151BF25E16EC251C021E26E010E35
:10102800C15D006E000EC259016E0050BF25E96E09
:101038000150C021EA6EEECFE6FF010EC15F000E3F
:10104800C25BDFD7BFC0E1FFC0C0E2FF200EE66E83
:10105800C351C4111AE0C16BC26BC151BF25E96EFF
:10106800C251C021EA6EEE50200A03E1C14BC22BE7
:10107800F4D7010EC15F000EC25BC151BF25E16EFE
:0C108800C251C021E26E2D0EE66E120077
:101094000B6A0350D8B490EF08F002500A6E028E27
:1010A4008E0E035E03AE94EF08F0036C080E035C2F
:1010B400D8A06FEF08F0036E013602C001F0026A97
:1010C400080E035CD8A06FEF08F0036E0136016AC6
:1010D4000350D8A4D89079EF08F00350D8B479EF2E
:1010E40008F0D89002320132032E73EF08F00BBCE3
:1010F40001A086EF08F0D8A086EF08F0012AD8B442
:10110400022A02BEA3EF08F00AAEA9EF08F0021EFD
:10111400011E012AD8B4022AA9EF08F0026A016A62
:10112400A9EF08F00B800BAEADEF08F0026A0AAE2F
:10113400ADEF08F0FF0E026E016E0A360232ADEF1B
:1011440008F0010E0C6E41EC03F0AFEF08F0000E56
:101154000C6EAFEF08F0FF0E0C6E0150006E0250E3
:04116400016E120006
:101168000001C96BCA6BBDC0C5F0BEC0C6F0BFC028
:10117800C7F0C0C0C8F0C851FF0A08E1C751FF0A4C
:1011880005E1C651FF0A02E1C551FF0A0DE1C1C0E0
:10119800CBF0C2C0CCF0490ECD6F000ECE6F0DEC77
:1011A80001F0030E006EF1D1010EC36FC7AF0ED070
:1011B800800EC719006E00C0C7F0C32BC1C0E1FF85
:1011C800C2C0E2FF2D0EE66EC14BC22B000E006EB0
:1011D800C81908E10050C71905E10050C61902E115
:1011E800C551000A0CE1C1C0CBF0C2C0CCF04E0E14
:1011F800CD6F000ECE6F0DEC01F0006AC6D1C8515C
:10120800FF0A08E1C751000A05E1C651000A02E1D8
:10121800C551000A0DE1C1C0CBF0C2C0CCF0500EE0
:10122800CD6F000ECE6F0DEC01F0C3C000F0ADD154
:10123800000E046E000E056E000E066E7F0E076E21
:10124800C5C000F0C6C001F0C7C002F0C8C003F0B6
:10125800A6EC00F0010ED8B0000E006E00521CE0A3
:10126800C5C000F0C6C001F0C7C002F0C8C003F096
:10127800000E046E000E056E200E066E820E076EBE
:1012880068EC02F000C0C5F001C0C6F002C0C7F0AB
:1012980003C0C8F0CA07CCD7000E046E000E056E56
:1012A800200E066E820E076EC5C000F0C6C001F0A3
:1012B800C7C002F0C8C003F0A6EC00F0000ED8B01A
:1012C800010E006E00521CE0C5C000F0C6C001F05F
:1012D800C7C002F0C8C003F0CD0E046ECC0E056E78
:1012E8004C0E066E7B0E076E68EC02F000C0C5F06F
:1012F80001C0C6F002C0C7F003C0C8F0CA2BCCD7E3
:10130800FF0EC515086EFF0EC615096E7F0EC715B0
:101318000A6E000EC8150B6E08C004F009C005F06F
:101328000AC006F00BC007F00436049005360636EE
:101338000736000EC515006E000EC615016E000EAC
:10134800C715026EFF0EC815036E00C0C5F001C0B8
:10135800C6F002C0C7F003C0C8F00450C511006E43
:101368000550C611016E0650C711026E0750C8110C
:10137800036E00C0C5F001C0C6F002C0C7F003C0CC
:10138800C8F07F0EC85D006E00C0C4F0010EC86FC3
:1013980000C004F0C5C000F0C6C001F0C7C002F02C
:1013A800C8C003F0045007E000360090013602364A
:1013B8000336FF0FF8D700C0C5F001C0C6F002C061
:1013C800C7F003C0C8F0C1C0E1FFC2C0E2FFC85106
:1013D800300FE66EC14BC22B800ECA19006E800E0C
:1013E800010A005C08E3800E060A006E800ECA1926
:1013F800005C01E30AD0C1C0E1FFC2C0E2FF2E0ECB
:10140800E66EC14BC22B010EC96F060EC46FC451E4
:10141800000A54E0C86BC5C000F0C6C001F0C7C0E0
:1014280002F0C8C003F000360090013602360336D9
:1014380000360090013602360336C5510026C651E3
:101448000122C7510222C851032200C0C5F001C0C1
:10145800C6F002C0C7F003C0C8F0C5C000F0C6C0DF
:1014680001F0C7C002F0C8C003F000360090013692
:101478000236033600C0C5F001C0C6F002C0C7F08E
:1014880003C0C8F0C1C0E1FFC2C0E2FFC851300FBD
:10149800E66EC14BC22BC951000A0EE1CA07CA51F8
:1014A800000A0AE1C1C0E1FFC2C0E2FF2E0EE66EEB
:1014B800C14BC22B010EC96FC407A9D7FF0EC125A6
:1014C800E96EFF0EC221EA6EEE50300A05E1010E08
:1014D800C15F000EC25BF2D7FF0EC125E96EFF0E99
:1014E800C221EA6EEE502E0A04E1010EC15F000E21
:1014F800C25BCA51000A43E0C1C0E1FFC2C0E2FFBB
:10150800650EE66EC14BC22B800ECA19006E800EA6
:10151800000A005C0BE2C1C0E1FFC2C0E2FF2D0E71
:10152800E66EC14BC22BCA510008CA6FCAC0C4F0CC
:10153800800E090A006E800ECA19005C0FE20A0EBE
:10154800046EC4C000F04FEC03F0C1C0E1FFC2C09C
:10155800E2FF0050300FE66EC14BC22B0A0E046E3C
:10156800C4C000F04FEC03F008C000F0C1C0E1FFB8
:10157800C2C0E2FF0050300FE66EC14BC22BC1C0A3
:0C158800E1FFC2C0E2FFE66A006A120048
:10159400BB50010F006E016A000E0122BDC004F0B1
:1015A400000E056E9EEC03F0060E026E00C004F001
:1015B40001C005F0025005E005320432059EFF0F1C
:1015C400FAD7040E016E04C000F0015004E00036A6
:1015D4000090FF0FFBD7300E0014036E04C000F020
:1015E40005C001F001320032019E01320032019E39
:1015F40000C05EFF0F0E0F015D1703505D13120054
:101604000050086E0150006E016A026A036A0B6A98
:101614000C6A960E036E0A6A00C001F008C000F05E
:0A162400086A026A25EC02F01200C9
:0C162E00939ABA840C0E0F015D13120099
:10163A0000C008F00150006E016A026A036A0B6A70
:10164A000C6A016A026A036A960E036E0A6A00AE9F
:10165A0035EF0BF0081E001E082AD8B4002A0A8E9D
:10166A0000C001F008C000F0086A026A25EC02F026
:02167A0012005C
:0A167C000F015E6B5D995D9B12008B
:1016860064EC0DF00F013A6B386B3B6B070E926EF4
:10169600806A92949296010E936E816A94969498BB
:1016A60047EC04F09584936AF40E956E62EC04F0B0
:1016B600010ED26F60EC00F00C0ED26F60EC00F001
:1016C600F292F288F28EF18C760ED36E0001010E44
:1016D600BD6F010EBE6F340EBF6F000EC06FCAEC39
:1016E60004F0BD6BD1EC03F000C032F001C033F062
:1016F60086DF000E046E000E056E200E066E810E4D
:10170600076E68EC02F0000E046E000E056E000E09
:10171600066E890E076E1EEC07F000C0A4F001C02D
:10172600A5F002C0A6F003C0A7F0330E046E330E78
:10173600056E730E066E7D0E076E0BEC05F05C0EE5
:10174600046E8F0E056E420E066E7A0E076E1EEC46
:1017560007F0000E046E000E056E000E066E810E7A
:10176600076E0BEC05F000C0A4F001C0A5F002C0A6
:10177600A6F003C0A7F000C0BDF001C0BEF002C0D5
:10178600BFF003C0C0F0AA0E0001C16F000EC26F09
:10179600E8DC160EBD6FD1EC03F000C0A8F001C066
:1017A600A9F02DDF000E046E400E056E1C0E066EAF
:1017B6008B0E076E68EC02F0000E046E000E056ECE
:1017C600000E066E890E076E1EEC07F000C0A0F034
:1017D60001C0A1F002C0A2F003C0A3F0000E046E87
:1017E600000E056E200E066E820E076E1EEC07F0CA
:1017F600330E046E330E056E730E066E810E076E83
:101806000BEC05F044DC00C09EF001C09FF000C068
:10181600BDF001C0BEF0900E0001BF6F000EC06F9C
:10182600DCEC07F0020EBD6F010EBE6F150EBF6F2A
:10183600000EC06FCAEC04F0020EBD6F0C0EBE6F38
:10184600900EBF6F000EC06FCAEC04F0030EBD6FA2
:10185600010EBE6F270EBF6F000EC06FCAEC04F0FC
:10186600030EBD6F0C0EBE6FAA0EBF6F000EC06FCB
:10187600CAEC04F0040EBD6F010EBE6F210EBF6FE1
:10188600000EC06FCAEC04F0040EBD6F070EBE6FEB
:10189600630EBF6F000EC06FCAEC04F0100E0B6E25
:1018A600390E0C6E0D0E0D6E0D2EFED70C2EFCD7BE
:1018B6000B2EFAD700000000010ED26F60EC00F08C
:1018C600010EBD6F010EBE6F540EBF6F000EC06FCE
:1018D600CAEC04F0020EBD6F010EBE6F6B0EBF6F39
:1018E600000EC06FCAEC04F0030EBD6F010EBE6F92
:1018F600850EBF6F000EC06FCAEC04F0040EBD6FFC
:10190600010EBE6F760EBF6F000EC06FCAEC04F0FC
:10191600100E0B6E390E0C6E0D0E0D6E0D2EFED7C3
:101926000C2EFCD70B2EFAD70000000083A803D09C
:101936008084809604D083B802D08086809483AE5B
:1019460079D081869EC000F09FC001F073DE00C092
:1019560004F001C005F002C006F003C007F0000E57
:10196600006E000E016E540E026E830E036EA6EC20
:1019760000F0010ED8B0000E006E00521FE0BA80D3
:10198600BA827C0EBB6E77DE4FDE5A0E0001BD6F4B
:10199600FEDD81948188100E0B6E390E0C6E0D0ED5
:1019A6000D6E0D2EFED70C2EFCD70B2EFAD700008F
:1019B6000000819481980BEC04F03BD09EC000F0AF
:1019C6009FC001F037DE000E046E000E056E4C0E51
:1019D600066E830E076EA6EC00F0010ED8B0000E60
:1019E600006E005222E0BA80BA827C0EBB6ECCEC4E
:1019F60003F0C6EC03F05A0E0001BD6F10EC04F0C4
:101A0600819C8182100E0B6E390E0C6E0D0E0D6EC2
:101A16000D2EFED70C2EFCD70B2EFAD70000000099
:101A2600819C8192C5EC04F004D0819C81928194C2
:101A3600819807D083BE05D08186819C819281944E
:061A4600819844D6FFD791
:101AC80010EE15F07B0E006E010E016E4C0EF66ED8
:0E1AD8001A0EF76E000EF86E5AEC04F01200B3
:0C1A4C0054656D70657261747572650000
:061A5800446179203A0010
:0B1A5E005072657373757265203A00CA
:021A690000007B
:101A6B00456C657661746F7220496E666F726D613D
:051A7B0074696F6E00AC
:041A80004E614E0065
:011A84000F52
:021A850030002F
:041A8700494E46007E
:0F1A8B002020202020202057454C434F4D450060
:081A9A00547565736461790065
:0B1AA200202020202020205448450078
:0F1AAD0020202020202020434F4D50414E590033
:0B1ABC0020202020202020544F5A0042
:020000040030CA
:0D000100231F3CFFBF81FF0FC00FE00F4029
:00000001FF
